{
  "address": "0x5FbDB2315678afecb367f032d93F642f64180aa3",
  "abi": [
    {
      "inputs": [
        {
          "internalType": "string[]",
          "name": "_hairStyleURIs",
          "type": "string[]"
        },
        {
          "internalType": "string[]",
          "name": "_eyeStyleURIs",
          "type": "string[]"
        },
        {
          "internalType": "string[]",
          "name": "_mouthStyleURIs",
          "type": "string[]"
        },
        {
          "internalType": "string[]",
          "name": "_clothStyleURIs",
          "type": "string[]"
        }
      ],
      "stateMutability": "nonpayable",
      "type": "constructor"
    },
    {
      "inputs": [],
      "name": "CryptoCharacter__AccessOutOfBound",
      "type": "error"
    },
    {
      "inputs": [],
      "name": "CryptoCharacter__InsufficientBidAmount",
      "type": "error"
    },
    {
      "inputs": [],
      "name": "CryptoCharacter__NotOwner",
      "type": "error"
    },
    {
      "inputs": [],
      "name": "CryptoCharacter__StyleExisted",
      "type": "error"
    },
    {
      "anonymous": false,
      "inputs": [
        {
          "indexed": false,
          "internalType": "string",
          "name": "uri",
          "type": "string"
        }
      ],
      "name": "NewStyleAdded",
      "type": "event"
    },
    {
      "anonymous": false,
      "inputs": [
        {
          "indexed": true,
          "internalType": "string",
          "name": "part",
          "type": "string"
        },
        {
          "indexed": true,
          "internalType": "address",
          "name": "bidder",
          "type": "address"
        },
        {
          "indexed": false,
          "internalType": "string",
          "name": "uri",
          "type": "string"
        },
        {
          "indexed": false,
          "internalType": "uint256",
          "name": "amount",
          "type": "uint256"
        }
      ],
      "name": "UpdateCharacterStyle",
      "type": "event"
    },
    {
      "stateMutability": "payable",
      "type": "fallback"
    },
    {
      "inputs": [
        {
          "internalType": "string",
          "name": "_newClothStyleURI",
          "type": "string"
        }
      ],
      "name": "addNewClothStyle",
      "outputs": [],
      "stateMutability": "nonpayable",
      "type": "function"
    },
    {
      "inputs": [
        {
          "internalType": "string",
          "name": "_newEyeStyleURI",
          "type": "string"
        }
      ],
      "name": "addNewEyeStyle",
      "outputs": [],
      "stateMutability": "nonpayable",
      "type": "function"
    },
    {
      "inputs": [
        {
          "internalType": "string",
          "name": "_newHairStyleURI",
          "type": "string"
        }
      ],
      "name": "addNewHairStyle",
      "outputs": [],
      "stateMutability": "nonpayable",
      "type": "function"
    },
    {
      "inputs": [
        {
          "internalType": "string",
          "name": "_newMouthStyleURI",
          "type": "string"
        }
      ],
      "name": "addNewMouthStyle",
      "outputs": [],
      "stateMutability": "nonpayable",
      "type": "function"
    },
    {
      "inputs": [],
      "name": "getCharacter",
      "outputs": [
        {
          "components": [
            {
              "components": [
                {
                  "internalType": "string",
                  "name": "styleURI",
                  "type": "string"
                },
                {
                  "internalType": "address",
                  "name": "owner",
                  "type": "address"
                },
                {
                  "internalType": "uint256",
                  "name": "highestBid",
                  "type": "uint256"
                }
              ],
              "internalType": "struct CryptoCharacter.CharacterPartOwnership",
              "name": "hair",
              "type": "tuple"
            },
            {
              "components": [
                {
                  "internalType": "string",
                  "name": "styleURI",
                  "type": "string"
                },
                {
                  "internalType": "address",
                  "name": "owner",
                  "type": "address"
                },
                {
                  "internalType": "uint256",
                  "name": "highestBid",
                  "type": "uint256"
                }
              ],
              "internalType": "struct CryptoCharacter.CharacterPartOwnership",
              "name": "eye",
              "type": "tuple"
            },
            {
              "components": [
                {
                  "internalType": "string",
                  "name": "styleURI",
                  "type": "string"
                },
                {
                  "internalType": "address",
                  "name": "owner",
                  "type": "address"
                },
                {
                  "internalType": "uint256",
                  "name": "highestBid",
                  "type": "uint256"
                }
              ],
              "internalType": "struct CryptoCharacter.CharacterPartOwnership",
              "name": "mouth",
              "type": "tuple"
            },
            {
              "components": [
                {
                  "internalType": "string",
                  "name": "styleURI",
                  "type": "string"
                },
                {
                  "internalType": "address",
                  "name": "owner",
                  "type": "address"
                },
                {
                  "internalType": "uint256",
                  "name": "highestBid",
                  "type": "uint256"
                }
              ],
              "internalType": "struct CryptoCharacter.CharacterPartOwnership",
              "name": "cloth",
              "type": "tuple"
            }
          ],
          "internalType": "struct CryptoCharacter.Character",
          "name": "",
          "type": "tuple"
        }
      ],
      "stateMutability": "view",
      "type": "function"
    },
    {
      "inputs": [
        {
          "internalType": "uint256",
          "name": "_index",
          "type": "uint256"
        }
      ],
      "name": "getClothStyleURI",
      "outputs": [
        {
          "internalType": "string",
          "name": "",
          "type": "string"
        }
      ],
      "stateMutability": "view",
      "type": "function"
    },
    {
      "inputs": [],
      "name": "getClothStyleURIs",
      "outputs": [
        {
          "internalType": "string[]",
          "name": "",
          "type": "string[]"
        }
      ],
      "stateMutability": "view",
      "type": "function"
    },
    {
      "inputs": [
        {
          "internalType": "uint256",
          "name": "_index",
          "type": "uint256"
        }
      ],
      "name": "getEyeStyleURI",
      "outputs": [
        {
          "internalType": "string",
          "name": "",
          "type": "string"
        }
      ],
      "stateMutability": "view",
      "type": "function"
    },
    {
      "inputs": [],
      "name": "getEyeStyleURIs",
      "outputs": [
        {
          "internalType": "string[]",
          "name": "",
          "type": "string[]"
        }
      ],
      "stateMutability": "view",
      "type": "function"
    },
    {
      "inputs": [
        {
          "internalType": "uint256",
          "name": "_index",
          "type": "uint256"
        }
      ],
      "name": "getHairStyleURI",
      "outputs": [
        {
          "internalType": "string",
          "name": "",
          "type": "string"
        }
      ],
      "stateMutability": "view",
      "type": "function"
    },
    {
      "inputs": [],
      "name": "getHairStyleURIs",
      "outputs": [
        {
          "internalType": "string[]",
          "name": "",
          "type": "string[]"
        }
      ],
      "stateMutability": "view",
      "type": "function"
    },
    {
      "inputs": [],
      "name": "getMinimumBidAmount",
      "outputs": [
        {
          "internalType": "uint256",
          "name": "",
          "type": "uint256"
        }
      ],
      "stateMutability": "pure",
      "type": "function"
    },
    {
      "inputs": [
        {
          "internalType": "uint256",
          "name": "_index",
          "type": "uint256"
        }
      ],
      "name": "getMouthStyleURI",
      "outputs": [
        {
          "internalType": "string",
          "name": "",
          "type": "string"
        }
      ],
      "stateMutability": "view",
      "type": "function"
    },
    {
      "inputs": [],
      "name": "getMouthStyleURIs",
      "outputs": [
        {
          "internalType": "string[]",
          "name": "",
          "type": "string[]"
        }
      ],
      "stateMutability": "view",
      "type": "function"
    },
    {
      "inputs": [],
      "name": "getOwner",
      "outputs": [
        {
          "internalType": "address",
          "name": "",
          "type": "address"
        }
      ],
      "stateMutability": "view",
      "type": "function"
    },
    {
      "inputs": [
        {
          "internalType": "uint256",
          "name": "_index",
          "type": "uint256"
        }
      ],
      "name": "selectNewClothStyle",
      "outputs": [],
      "stateMutability": "payable",
      "type": "function"
    },
    {
      "inputs": [
        {
          "internalType": "uint256",
          "name": "_index",
          "type": "uint256"
        }
      ],
      "name": "selectNewEyeStyle",
      "outputs": [],
      "stateMutability": "payable",
      "type": "function"
    },
    {
      "inputs": [
        {
          "internalType": "uint256",
          "name": "_index",
          "type": "uint256"
        }
      ],
      "name": "selectNewHairStyle",
      "outputs": [],
      "stateMutability": "payable",
      "type": "function"
    },
    {
      "inputs": [
        {
          "internalType": "uint256",
          "name": "_index",
          "type": "uint256"
        }
      ],
      "name": "selectNewMouthStyle",
      "outputs": [],
      "stateMutability": "payable",
      "type": "function"
    },
    {
      "stateMutability": "payable",
      "type": "receive"
    }
  ],
  "transactionHash": "0x5c7eb4e4ce8d3785fdbc0acb36b6f0ec65d40748099cbf384df1bc1955ef8b38",
  "args": [
    [
      "ipfs://bafkreig5p3mpyledidlwxbwds3of4vsidd3zjv5636qicrtr6ir2l3mc6e",
      "ipfs://bafkreiapvipunndozdf6jfxwtdaxwp7dpleb6c4i6eikikdipfx7wfegoa",
      "ipfs://bafkreigf5zd2gpusrntyfc7sgczydbupdfdkfq6vkp45efwv337wdudvfm",
      "ipfs://bafkreigr2frw6svioij5p4ocef7xivp4ypntoy7ip7gc7g2xerlbrwvp7i"
    ],
    [
      "ipfs://bafkreiej4g3i6i3an5neg7xtb6rmlwaamaod6r2hes5jzitl4loyfp62qi",
      "ipfs://bafkreiazgxyeqzbgszc5owhhousmjoja44xgcvmtmiy5cmu4wcu5z32t3u",
      "ipfs://bafkreiaddwxbezl5qtuelyz7rpwojmpcbraddzxboocaaxeuevoh4z5pci",
      "ipfs://bafkreihfo4iywxnwc3yqconsixmuhaydsd2t2gfzndgt472fia4hutdope"
    ],
    [
      "ipfs://bafkreibk2cwy2lufcu7w6j3vsxh4x4ekeomadmiyl6tc2n2u37mn7kqy6y",
      "ipfs://bafkreidsjdswrrmrxq6s7q33jffhwbqu2t4xk6gpp2kh4srv4cewt45x5u",
      "ipfs://bafkreibix6v3uh5swzsotvhl6ekyex7e2i3dnyr6nr7oczqslt26yhyj4e",
      "ipfs://bafkreicclmbfexoq5bh7yz5hmwh6bd6kcthz35na7g55i2jl45mdzxgele"
    ],
    [
      "ipfs://bafkreigsjt6rz5c4oap63x64jaozuwcrkvsanlg4b3jfex7jqkp6s7jdhi",
      "ipfs://bafybeidgqn4midditffdrb65qobygtyuahc6kxxbhgar5rpavnot5bcy6q",
      "ipfs://bafybeidx44u3hph5ylg2zr3gc7ebvekg67w2g2fsaf57feilzg6d5lm4y4",
      "ipfs://bafybeidlpqohqk7oatjqpayzqplrmihjs5hk2xec4vh7bgl3tkdaly5v2e"
    ]
  ],
  "numDeployments": 1,
  "solcInputHash": "1801b08e36db1987ddd02f54984bb76e",
  "bytecode": "0x60a06040523480156200001157600080fd5b50604051620040f8380380620040f883398181016040528101906200003791906200079e565b3373ffffffffffffffffffffffffffffffffffffffff1660808173ffffffffffffffffffffffffffffffffffffffff168152505060405180608001604052806040518060600160405280876000815181106200009857620000976200088c565b5b602002602001015181526020013373ffffffffffffffffffffffffffffffffffffffff16815260200166038d7ea4c680008152508152602001604051806060016040528086600081518110620000f357620000f26200088c565b5b602002602001015181526020013373ffffffffffffffffffffffffffffffffffffffff16815260200166038d7ea4c6800081525081526020016040518060600160405280856000815181106200014e576200014d6200088c565b5b602002602001015181526020013373ffffffffffffffffffffffffffffffffffffffff16815260200166038d7ea4c680008152508152602001604051806060016040528084600081518110620001a957620001a86200088c565b5b602002602001015181526020013373ffffffffffffffffffffffffffffffffffffffff16815260200166038d7ea4c6800081525081525060008082015181600001600082015181600001908162000201919062000b06565b5060208201518160010160006101000a81548173ffffffffffffffffffffffffffffffffffffffff021916908373ffffffffffffffffffffffffffffffffffffffff160217905550604082015181600201555050602082015181600301600082015181600001908162000275919062000b06565b5060208201518160010160006101000a81548173ffffffffffffffffffffffffffffffffffffffff021916908373ffffffffffffffffffffffffffffffffffffffff1602179055506040820151816002015550506040820151816006016000820151816000019081620002e9919062000b06565b5060208201518160010160006101000a81548173ffffffffffffffffffffffffffffffffffffffff021916908373ffffffffffffffffffffffffffffffffffffffff16021790555060408201518160020155505060608201518160090160008201518160000190816200035d919062000b06565b5060208201518160010160006101000a81548173ffffffffffffffffffffffffffffffffffffffff021916908373ffffffffffffffffffffffffffffffffffffffff16021790555060408201518160020155505090505083600c9080519060200190620003cc92919062000422565b5082600d9080519060200190620003e592919062000422565b5081600e9080519060200190620003fe92919062000422565b5080600f90805190602001906200041792919062000422565b505050505062000bed565b8280548282559060005260206000209081019282156200046f579160200282015b828111156200046e5782518290816200045d919062000b06565b509160200191906001019062000443565b5b5090506200047e919062000482565b5090565b5b80821115620004a657600081816200049c9190620004aa565b5060010162000483565b5090565b508054620004b890620008f5565b6000825580601f10620004cc5750620004ed565b601f016020900490600052602060002090810190620004ec9190620004f0565b5b50565b5b808211156200050b576000816000905550600101620004f1565b5090565b6000604051905090565b600080fd5b600080fd5b600080fd5b6000601f19601f8301169050919050565b7f4e487b7100000000000000000000000000000000000000000000000000000000600052604160045260246000fd5b620005738262000528565b810181811067ffffffffffffffff8211171562000595576200059462000539565b5b80604052505050565b6000620005aa6200050f565b9050620005b8828262000568565b919050565b600067ffffffffffffffff821115620005db57620005da62000539565b5b602082029050602081019050919050565b600080fd5b600080fd5b600067ffffffffffffffff82111562000614576200061362000539565b5b6200061f8262000528565b9050602081019050919050565b60005b838110156200064c5780820151818401526020810190506200062f565b60008484015250505050565b60006200066f6200066984620005f6565b6200059e565b9050828152602081018484840111156200068e576200068d620005f1565b5b6200069b8482856200062c565b509392505050565b600082601f830112620006bb57620006ba62000523565b5b8151620006cd84826020860162000658565b91505092915050565b6000620006ed620006e784620005bd565b6200059e565b90508083825260208201905060208402830185811115620007135762000712620005ec565b5b835b818110156200076157805167ffffffffffffffff8111156200073c576200073b62000523565b5b8086016200074b8982620006a3565b8552602085019450505060208101905062000715565b5050509392505050565b600082601f83011262000783576200078262000523565b5b815162000795848260208601620006d6565b91505092915050565b60008060008060808587031215620007bb57620007ba62000519565b5b600085015167ffffffffffffffff811115620007dc57620007db6200051e565b5b620007ea878288016200076b565b945050602085015167ffffffffffffffff8111156200080e576200080d6200051e565b5b6200081c878288016200076b565b935050604085015167ffffffffffffffff81111562000840576200083f6200051e565b5b6200084e878288016200076b565b925050606085015167ffffffffffffffff8111156200087257620008716200051e565b5b62000880878288016200076b565b91505092959194509250565b7f4e487b7100000000000000000000000000000000000000000000000000000000600052603260045260246000fd5b600081519050919050565b7f4e487b7100000000000000000000000000000000000000000000000000000000600052602260045260246000fd5b600060028204905060018216806200090e57607f821691505b602082108103620009245762000923620008c6565b5b50919050565b60008190508160005260206000209050919050565b60006020601f8301049050919050565b600082821b905092915050565b6000600883026200098e7fffffffffffffffffffffffffffffffffffffffffffffffffffffffffffffffff826200094f565b6200099a86836200094f565b95508019841693508086168417925050509392505050565b6000819050919050565b6000819050919050565b6000620009e7620009e1620009db84620009b2565b620009bc565b620009b2565b9050919050565b6000819050919050565b62000a0383620009c6565b62000a1b62000a1282620009ee565b8484546200095c565b825550505050565b600090565b62000a3262000a23565b62000a3f818484620009f8565b505050565b5b8181101562000a675762000a5b60008262000a28565b60018101905062000a45565b5050565b601f82111562000ab65762000a80816200092a565b62000a8b846200093f565b8101602085101562000a9b578190505b62000ab362000aaa856200093f565b83018262000a44565b50505b505050565b600082821c905092915050565b600062000adb6000198460080262000abb565b1980831691505092915050565b600062000af6838362000ac8565b9150826002028217905092915050565b62000b1182620008bb565b67ffffffffffffffff81111562000b2d5762000b2c62000539565b5b62000b398254620008f5565b62000b4682828562000a6b565b600060209050601f83116001811462000b7e576000841562000b69578287015190505b62000b75858262000ae8565b86555062000be5565b601f19841662000b8e866200092a565b60005b8281101562000bb85784890151825560018201915060208501945060208101905062000b91565b8683101562000bd8578489015162000bd4601f89168262000ac8565b8355505b6001600288020188555050505b505050505050565b6080516134d362000c256000396000818161093a01528181610f760152818161117c01528181611d7b01526123bb01526134d36000f3fe6080604052600436106101185760003560e01c806359605c6d116100a05780639e6aa642116100645780639e6aa6421461036d578063a7a88d9314610398578063cd8832f7146103d5578063d4cbf5e814610400578063f740f14b1461042b5761011f565b806359605c6d146102955780635a29cdc7146102c057806381c32944146102e9578063893d20e814610305578063934e1c17146103305761011f565b806339cbdb64116100e757806339cbdb64146101ce5780633fee65ec146101f75780634ac1b62b146102205780634fb4fb931461023c578063568bdbab146102795761011f565b80630c96fe3a146101215780631e8237df1461015e57806321092cd914610189578063357fe5ea146101b25761011f565b3661011f57005b005b34801561012d57600080fd5b5061014860048036038101906101439190612941565b610456565b60405161015591906129fe565b60405180910390f35b34801561016a57600080fd5b50610173610506565b6040516101809190612b82565b60405180910390f35b34801561019557600080fd5b506101b060048036038101906101ab9190612cd9565b610938565b005b6101cc60048036038101906101c79190612941565b610b3e565b005b3480156101da57600080fd5b506101f560048036038101906101f09190612cd9565b610f74565b005b34801561020357600080fd5b5061021e60048036038101906102199190612cd9565b61117a565b005b61023a60048036038101906102359190612941565b611380565b005b34801561024857600080fd5b50610263600480360381019061025e9190612941565b6117b8565b60405161027091906129fe565b60405180910390f35b610293600480360381019061028e9190612941565b611868565b005b3480156102a157600080fd5b506102aa611ca0565b6040516102b79190612de4565b60405180910390f35b3480156102cc57600080fd5b506102e760048036038101906102e29190612cd9565b611d79565b005b61030360048036038101906102fe9190612941565b611f7f565b005b34801561031157600080fd5b5061031a6123b7565b6040516103279190612e15565b60405180910390f35b34801561033c57600080fd5b5061035760048036038101906103529190612941565b6123df565b60405161036491906129fe565b60405180910390f35b34801561037957600080fd5b5061038261248f565b60405161038f9190612de4565b60405180910390f35b3480156103a457600080fd5b506103bf60048036038101906103ba9190612941565b612568565b6040516103cc91906129fe565b60405180910390f35b3480156103e157600080fd5b506103ea612618565b6040516103f79190612e3f565b60405180910390f35b34801561040c57600080fd5b50610415612627565b6040516104229190612de4565b60405180910390f35b34801561043757600080fd5b50610440612700565b60405161044d9190612de4565b60405180910390f35b6060600f828154811061046c5761046b612e5a565b5b90600052602060002001805461048190612eb8565b80601f01602080910402602001604051908101604052809291908181526020018280546104ad90612eb8565b80156104fa5780601f106104cf576101008083540402835291602001916104fa565b820191906000526020600020905b8154815290600101906020018083116104dd57829003601f168201915b50505050509050919050565b61050e612880565b60006040518060800160405290816000820160405180606001604052908160008201805461053b90612eb8565b80601f016020809104026020016040519081016040528092919081815260200182805461056790612eb8565b80156105b45780601f10610589576101008083540402835291602001916105b4565b820191906000526020600020905b81548152906001019060200180831161059757829003601f168201915b505050505081526020016001820160009054906101000a900473ffffffffffffffffffffffffffffffffffffffff1673ffffffffffffffffffffffffffffffffffffffff1673ffffffffffffffffffffffffffffffffffffffff16815260200160028201548152505081526020016003820160405180606001604052908160008201805461064190612eb8565b80601f016020809104026020016040519081016040528092919081815260200182805461066d90612eb8565b80156106ba5780601f1061068f576101008083540402835291602001916106ba565b820191906000526020600020905b81548152906001019060200180831161069d57829003601f168201915b505050505081526020016001820160009054906101000a900473ffffffffffffffffffffffffffffffffffffffff1673ffffffffffffffffffffffffffffffffffffffff1673ffffffffffffffffffffffffffffffffffffffff16815260200160028201548152505081526020016006820160405180606001604052908160008201805461074790612eb8565b80601f016020809104026020016040519081016040528092919081815260200182805461077390612eb8565b80156107c05780601f10610795576101008083540402835291602001916107c0565b820191906000526020600020905b8154815290600101906020018083116107a357829003601f168201915b505050505081526020016001820160009054906101000a900473ffffffffffffffffffffffffffffffffffffffff1673ffffffffffffffffffffffffffffffffffffffff1673ffffffffffffffffffffffffffffffffffffffff16815260200160028201548152505081526020016009820160405180606001604052908160008201805461084d90612eb8565b80601f016020809104026020016040519081016040528092919081815260200182805461087990612eb8565b80156108c65780601f1061089b576101008083540402835291602001916108c6565b820191906000526020600020905b8154815290600101906020018083116108a957829003601f168201915b505050505081526020016001820160009054906101000a900473ffffffffffffffffffffffffffffffffffffffff1673ffffffffffffffffffffffffffffffffffffffff1673ffffffffffffffffffffffffffffffffffffffff16815260200160028201548152505081525050905090565b7f000000000000000000000000000000000000000000000000000000000000000073ffffffffffffffffffffffffffffffffffffffff163373ffffffffffffffffffffffffffffffffffffffff16146109bd576040517ff411314000000000000000000000000000000000000000000000000000000000815260040160405180910390fd5b610a9881600e805480602002602001604051908101604052809291908181526020016000905b82821015610a8f578382906000526020600020018054610a0290612eb8565b80601f0160208091040260200160405190810160405280929190818152602001828054610a2e90612eb8565b8015610a7b5780601f10610a5057610100808354040283529160200191610a7b565b820191906000526020600020905b815481529060010190602001808311610a5e57829003601f168201915b5050505050815260200190600101906109e3565b505050506127d9565b15610acf576040517f79ab496200000000000000000000000000000000000000000000000000000000815260040160405180910390fd5b600e81908060018154018082558091505060019003906000526020600020016000909190919091509081610b039190613095565b507f6bbb3bea738d8cfdcde93998c411e91d6142ba39c635e17741f9da984708836881604051610b3391906129fe565b60405180910390a150565b60008001604051806060016040529081600082018054610b5d90612eb8565b80601f0160208091040260200160405190810160405280929190818152602001828054610b8990612eb8565b8015610bd65780601f10610bab57610100808354040283529160200191610bd6565b820191906000526020600020905b815481529060010190602001808311610bb957829003601f168201915b505050505081526020016001820160009054906101000a900473ffffffffffffffffffffffffffffffffffffffff1673ffffffffffffffffffffffffffffffffffffffff1673ffffffffffffffffffffffffffffffffffffffff16815260200160028201548152505066038d7ea4c680008160400151610c569190613196565b3411610c8e576040517feec3932200000000000000000000000000000000000000000000000000000000815260040160405180910390fd5b81600c805480602002602001604051908101604052809291908181526020016000905b82821015610d5d578382906000526020600020018054610cd090612eb8565b80601f0160208091040260200160405190810160405280929190818152602001828054610cfc90612eb8565b8015610d495780601f10610d1e57610100808354040283529160200191610d49565b820191906000526020600020905b815481529060010190602001808311610d2c57829003601f168201915b505050505081526020019060010190610cb1565b505050506000821080610d71575080518210155b15610da8576040517f349264d900000000000000000000000000000000000000000000000000000000815260040160405180910390fd5b6040518060600160405280600c8681548110610dc757610dc6612e5a565b5b906000526020600020018054610ddc90612eb8565b80601f0160208091040260200160405190810160405280929190818152602001828054610e0890612eb8565b8015610e555780601f10610e2a57610100808354040283529160200191610e55565b820191906000526020600020905b815481529060010190602001808311610e3857829003601f168201915b505050505081526020013373ffffffffffffffffffffffffffffffffffffffff16815260200134815250600080016000820151816000019081610e989190613095565b5060208201518160010160006101000a81548173ffffffffffffffffffffffffffffffffffffffff021916908373ffffffffffffffffffffffffffffffffffffffff160217905550604082015181600201559050503373ffffffffffffffffffffffffffffffffffffffff16604051610f1090613221565b60405180910390207f531ec579a80a8d272c5c5f00d1e24e31a243396c08bc8a3729be1f96ee241195600c8781548110610f4d57610f4c612e5a565b5b9060005260206000200134604051610f669291906132ba565b60405180910390a350505050565b7f000000000000000000000000000000000000000000000000000000000000000073ffffffffffffffffffffffffffffffffffffffff163373ffffffffffffffffffffffffffffffffffffffff1614610ff9576040517ff411314000000000000000000000000000000000000000000000000000000000815260040160405180910390fd5b6110d481600d805480602002602001604051908101604052809291908181526020016000905b828210156110cb57838290600052602060002001805461103e90612eb8565b80601f016020809104026020016040519081016040528092919081815260200182805461106a90612eb8565b80156110b75780601f1061108c576101008083540402835291602001916110b7565b820191906000526020600020905b81548152906001019060200180831161109a57829003601f168201915b50505050508152602001906001019061101f565b505050506127d9565b1561110b576040517f79ab496200000000000000000000000000000000000000000000000000000000815260040160405180910390fd5b600d8190806001815401808255809150506001900390600052602060002001600090919091909150908161113f9190613095565b507f6bbb3bea738d8cfdcde93998c411e91d6142ba39c635e17741f9da98470883688160405161116f91906129fe565b60405180910390a150565b7f000000000000000000000000000000000000000000000000000000000000000073ffffffffffffffffffffffffffffffffffffffff163373ffffffffffffffffffffffffffffffffffffffff16146111ff576040517ff411314000000000000000000000000000000000000000000000000000000000815260040160405180910390fd5b6112da81600f805480602002602001604051908101604052809291908181526020016000905b828210156112d157838290600052602060002001805461124490612eb8565b80601f016020809104026020016040519081016040528092919081815260200182805461127090612eb8565b80156112bd5780601f10611292576101008083540402835291602001916112bd565b820191906000526020600020905b8154815290600101906020018083116112a057829003601f168201915b505050505081526020019060010190611225565b505050506127d9565b15611311576040517f79ab496200000000000000000000000000000000000000000000000000000000815260040160405180910390fd5b600f819080600181540180825580915050600190039060005260206000200160009091909190915090816113459190613095565b507f6bbb3bea738d8cfdcde93998c411e91d6142ba39c635e17741f9da98470883688160405161137591906129fe565b60405180910390a150565b60006009016040518060600160405290816000820180546113a090612eb8565b80601f01602080910402602001604051908101604052809291908181526020018280546113cc90612eb8565b80156114195780601f106113ee57610100808354040283529160200191611419565b820191906000526020600020905b8154815290600101906020018083116113fc57829003601f168201915b505050505081526020016001820160009054906101000a900473ffffffffffffffffffffffffffffffffffffffff1673ffffffffffffffffffffffffffffffffffffffff1673ffffffffffffffffffffffffffffffffffffffff16815260200160028201548152505066038d7ea4c6800081604001516114999190613196565b34116114d1576040517feec3932200000000000000000000000000000000000000000000000000000000815260040160405180910390fd5b81600f805480602002602001604051908101604052809291908181526020016000905b828210156115a057838290600052602060002001805461151390612eb8565b80601f016020809104026020016040519081016040528092919081815260200182805461153f90612eb8565b801561158c5780601f106115615761010080835404028352916020019161158c565b820191906000526020600020905b81548152906001019060200180831161156f57829003601f168201915b5050505050815260200190600101906114f4565b5050505060008210806115b4575080518210155b156115eb576040517f349264d900000000000000000000000000000000000000000000000000000000815260040160405180910390fd5b6040518060600160405280600f868154811061160a57611609612e5a565b5b90600052602060002001805461161f90612eb8565b80601f016020809104026020016040519081016040528092919081815260200182805461164b90612eb8565b80156116985780601f1061166d57610100808354040283529160200191611698565b820191906000526020600020905b81548152906001019060200180831161167b57829003601f168201915b505050505081526020013373ffffffffffffffffffffffffffffffffffffffff16815260200134815250600060090160008201518160000190816116dc9190613095565b5060208201518160010160006101000a81548173ffffffffffffffffffffffffffffffffffffffff021916908373ffffffffffffffffffffffffffffffffffffffff160217905550604082015181600201559050503373ffffffffffffffffffffffffffffffffffffffff1660405161175490613336565b60405180910390207f531ec579a80a8d272c5c5f00d1e24e31a243396c08bc8a3729be1f96ee241195600f878154811061179157611790612e5a565b5b90600052602060002001346040516117aa9291906132ba565b60405180910390a350505050565b6060600e82815481106117ce576117cd612e5a565b5b9060005260206000200180546117e390612eb8565b80601f016020809104026020016040519081016040528092919081815260200182805461180f90612eb8565b801561185c5780601f106118315761010080835404028352916020019161185c565b820191906000526020600020905b81548152906001019060200180831161183f57829003601f168201915b50505050509050919050565b600060060160405180606001604052908160008201805461188890612eb8565b80601f01602080910402602001604051908101604052809291908181526020018280546118b490612eb8565b80156119015780601f106118d657610100808354040283529160200191611901565b820191906000526020600020905b8154815290600101906020018083116118e457829003601f168201915b505050505081526020016001820160009054906101000a900473ffffffffffffffffffffffffffffffffffffffff1673ffffffffffffffffffffffffffffffffffffffff1673ffffffffffffffffffffffffffffffffffffffff16815260200160028201548152505066038d7ea4c6800081604001516119819190613196565b34116119b9576040517feec3932200000000000000000000000000000000000000000000000000000000815260040160405180910390fd5b81600e805480602002602001604051908101604052809291908181526020016000905b82821015611a885783829060005260206000200180546119fb90612eb8565b80601f0160208091040260200160405190810160405280929190818152602001828054611a2790612eb8565b8015611a745780601f10611a4957610100808354040283529160200191611a74565b820191906000526020600020905b815481529060010190602001808311611a5757829003601f168201915b5050505050815260200190600101906119dc565b505050506000821080611a9c575080518210155b15611ad3576040517f349264d900000000000000000000000000000000000000000000000000000000815260040160405180910390fd5b6040518060600160405280600e8681548110611af257611af1612e5a565b5b906000526020600020018054611b0790612eb8565b80601f0160208091040260200160405190810160405280929190818152602001828054611b3390612eb8565b8015611b805780601f10611b5557610100808354040283529160200191611b80565b820191906000526020600020905b815481529060010190602001808311611b6357829003601f168201915b505050505081526020013373ffffffffffffffffffffffffffffffffffffffff1681526020013481525060006006016000820151816000019081611bc49190613095565b5060208201518160010160006101000a81548173ffffffffffffffffffffffffffffffffffffffff021916908373ffffffffffffffffffffffffffffffffffffffff160217905550604082015181600201559050503373ffffffffffffffffffffffffffffffffffffffff16604051611c3c90613397565b60405180910390207f531ec579a80a8d272c5c5f00d1e24e31a243396c08bc8a3729be1f96ee241195600e8781548110611c7957611c78612e5a565b5b9060005260206000200134604051611c929291906132ba565b60405180910390a350505050565b6060600f805480602002602001604051908101604052809291908181526020016000905b82821015611d70578382906000526020600020018054611ce390612eb8565b80601f0160208091040260200160405190810160405280929190818152602001828054611d0f90612eb8565b8015611d5c5780601f10611d3157610100808354040283529160200191611d5c565b820191906000526020600020905b815481529060010190602001808311611d3f57829003601f168201915b505050505081526020019060010190611cc4565b50505050905090565b7f000000000000000000000000000000000000000000000000000000000000000073ffffffffffffffffffffffffffffffffffffffff163373ffffffffffffffffffffffffffffffffffffffff1614611dfe576040517ff411314000000000000000000000000000000000000000000000000000000000815260040160405180910390fd5b611ed981600c805480602002602001604051908101604052809291908181526020016000905b82821015611ed0578382906000526020600020018054611e4390612eb8565b80601f0160208091040260200160405190810160405280929190818152602001828054611e6f90612eb8565b8015611ebc5780601f10611e9157610100808354040283529160200191611ebc565b820191906000526020600020905b815481529060010190602001808311611e9f57829003601f168201915b505050505081526020019060010190611e24565b505050506127d9565b15611f10576040517f79ab496200000000000000000000000000000000000000000000000000000000815260040160405180910390fd5b600c81908060018154018082558091505060019003906000526020600020016000909190919091509081611f449190613095565b507f6bbb3bea738d8cfdcde93998c411e91d6142ba39c635e17741f9da984708836881604051611f7491906129fe565b60405180910390a150565b6000600301604051806060016040529081600082018054611f9f90612eb8565b80601f0160208091040260200160405190810160405280929190818152602001828054611fcb90612eb8565b80156120185780601f10611fed57610100808354040283529160200191612018565b820191906000526020600020905b815481529060010190602001808311611ffb57829003601f168201915b505050505081526020016001820160009054906101000a900473ffffffffffffffffffffffffffffffffffffffff1673ffffffffffffffffffffffffffffffffffffffff1673ffffffffffffffffffffffffffffffffffffffff16815260200160028201548152505066038d7ea4c6800081604001516120989190613196565b34116120d0576040517feec3932200000000000000000000000000000000000000000000000000000000815260040160405180910390fd5b81600d805480602002602001604051908101604052809291908181526020016000905b8282101561219f57838290600052602060002001805461211290612eb8565b80601f016020809104026020016040519081016040528092919081815260200182805461213e90612eb8565b801561218b5780601f106121605761010080835404028352916020019161218b565b820191906000526020600020905b81548152906001019060200180831161216e57829003601f168201915b5050505050815260200190600101906120f3565b5050505060008210806121b3575080518210155b156121ea576040517f349264d900000000000000000000000000000000000000000000000000000000815260040160405180910390fd5b6040518060600160405280600d868154811061220957612208612e5a565b5b90600052602060002001805461221e90612eb8565b80601f016020809104026020016040519081016040528092919081815260200182805461224a90612eb8565b80156122975780601f1061226c57610100808354040283529160200191612297565b820191906000526020600020905b81548152906001019060200180831161227a57829003601f168201915b505050505081526020013373ffffffffffffffffffffffffffffffffffffffff16815260200134815250600060030160008201518160000190816122db9190613095565b5060208201518160010160006101000a81548173ffffffffffffffffffffffffffffffffffffffff021916908373ffffffffffffffffffffffffffffffffffffffff160217905550604082015181600201559050503373ffffffffffffffffffffffffffffffffffffffff16604051612353906133f8565b60405180910390207f531ec579a80a8d272c5c5f00d1e24e31a243396c08bc8a3729be1f96ee241195600d87815481106123905761238f612e5a565b5b90600052602060002001346040516123a99291906132ba565b60405180910390a350505050565b60007f0000000000000000000000000000000000000000000000000000000000000000905090565b6060600c82815481106123f5576123f4612e5a565b5b90600052602060002001805461240a90612eb8565b80601f016020809104026020016040519081016040528092919081815260200182805461243690612eb8565b80156124835780601f1061245857610100808354040283529160200191612483565b820191906000526020600020905b81548152906001019060200180831161246657829003601f168201915b50505050509050919050565b6060600e805480602002602001604051908101604052809291908181526020016000905b8282101561255f5783829060005260206000200180546124d290612eb8565b80601f01602080910402602001604051908101604052809291908181526020018280546124fe90612eb8565b801561254b5780601f106125205761010080835404028352916020019161254b565b820191906000526020600020905b81548152906001019060200180831161252e57829003601f168201915b5050505050815260200190600101906124b3565b50505050905090565b6060600d828154811061257e5761257d612e5a565b5b90600052602060002001805461259390612eb8565b80601f01602080910402602001604051908101604052809291908181526020018280546125bf90612eb8565b801561260c5780601f106125e15761010080835404028352916020019161260c565b820191906000526020600020905b8154815290600101906020018083116125ef57829003601f168201915b50505050509050919050565b600066038d7ea4c68000905090565b6060600c805480602002602001604051908101604052809291908181526020016000905b828210156126f757838290600052602060002001805461266a90612eb8565b80601f016020809104026020016040519081016040528092919081815260200182805461269690612eb8565b80156126e35780601f106126b8576101008083540402835291602001916126e3565b820191906000526020600020905b8154815290600101906020018083116126c657829003601f168201915b50505050508152602001906001019061264b565b50505050905090565b6060600d805480602002602001604051908101604052809291908181526020016000905b828210156127d057838290600052602060002001805461274390612eb8565b80601f016020809104026020016040519081016040528092919081815260200182805461276f90612eb8565b80156127bc5780601f10612791576101008083540402835291602001916127bc565b820191906000526020600020905b81548152906001019060200180831161279f57829003601f168201915b505050505081526020019060010190612724565b50505050905090565b600080600090505b8251811015612874578281815181106127fd576127fc612e5a565b5b6020026020010151604051602001612815919061343e565b604051602081830303815290604052805190602001208460405160200161283c919061343e565b604051602081830303815290604052805190602001200361286157600191505061287a565b808061286c90613455565b9150506127e1565b50600090505b92915050565b60405180608001604052806128936128c0565b81526020016128a06128c0565b81526020016128ad6128c0565b81526020016128ba6128c0565b81525090565b604051806060016040528060608152602001600073ffffffffffffffffffffffffffffffffffffffff168152602001600081525090565b6000604051905090565b600080fd5b600080fd5b6000819050919050565b61291e8161290b565b811461292957600080fd5b50565b60008135905061293b81612915565b92915050565b60006020828403121561295757612956612901565b5b60006129658482850161292c565b91505092915050565b600081519050919050565b600082825260208201905092915050565b60005b838110156129a857808201518184015260208101905061298d565b60008484015250505050565b6000601f19601f8301169050919050565b60006129d08261296e565b6129da8185612979565b93506129ea81856020860161298a565b6129f3816129b4565b840191505092915050565b60006020820190508181036000830152612a1881846129c5565b905092915050565b600082825260208201905092915050565b6000612a3c8261296e565b612a468185612a20565b9350612a5681856020860161298a565b612a5f816129b4565b840191505092915050565b600073ffffffffffffffffffffffffffffffffffffffff82169050919050565b6000612a9582612a6a565b9050919050565b612aa581612a8a565b82525050565b612ab48161290b565b82525050565b60006060830160008301518482036000860152612ad78282612a31565b9150506020830151612aec6020860182612a9c565b506040830151612aff6040860182612aab565b508091505092915050565b60006080830160008301518482036000860152612b278282612aba565b91505060208301518482036020860152612b418282612aba565b91505060408301518482036040860152612b5b8282612aba565b91505060608301518482036060860152612b758282612aba565b9150508091505092915050565b60006020820190508181036000830152612b9c8184612b0a565b905092915050565b600080fd5b600080fd5b7f4e487b7100000000000000000000000000000000000000000000000000000000600052604160045260246000fd5b612be6826129b4565b810181811067ffffffffffffffff82111715612c0557612c04612bae565b5b80604052505050565b6000612c186128f7565b9050612c248282612bdd565b919050565b600067ffffffffffffffff821115612c4457612c43612bae565b5b612c4d826129b4565b9050602081019050919050565b82818337600083830152505050565b6000612c7c612c7784612c29565b612c0e565b905082815260208101848484011115612c9857612c97612ba9565b5b612ca3848285612c5a565b509392505050565b600082601f830112612cc057612cbf612ba4565b5b8135612cd0848260208601612c69565b91505092915050565b600060208284031215612cef57612cee612901565b5b600082013567ffffffffffffffff811115612d0d57612d0c612906565b5b612d1984828501612cab565b91505092915050565b600081519050919050565b600082825260208201905092915050565b6000819050602082019050919050565b6000612d5a8383612a31565b905092915050565b6000602082019050919050565b6000612d7a82612d22565b612d848185612d2d565b935083602082028501612d9685612d3e565b8060005b85811015612dd25784840389528151612db38582612d4e565b9450612dbe83612d62565b925060208a01995050600181019050612d9a565b50829750879550505050505092915050565b60006020820190508181036000830152612dfe8184612d6f565b905092915050565b612e0f81612a8a565b82525050565b6000602082019050612e2a6000830184612e06565b92915050565b612e398161290b565b82525050565b6000602082019050612e546000830184612e30565b92915050565b7f4e487b7100000000000000000000000000000000000000000000000000000000600052603260045260246000fd5b7f4e487b7100000000000000000000000000000000000000000000000000000000600052602260045260246000fd5b60006002820490506001821680612ed057607f821691505b602082108103612ee357612ee2612e89565b5b50919050565b60008190508160005260206000209050919050565b60006020601f8301049050919050565b600082821b905092915050565b600060088302612f4b7fffffffffffffffffffffffffffffffffffffffffffffffffffffffffffffffff82612f0e565b612f558683612f0e565b95508019841693508086168417925050509392505050565b6000819050919050565b6000612f92612f8d612f888461290b565b612f6d565b61290b565b9050919050565b6000819050919050565b612fac83612f77565b612fc0612fb882612f99565b848454612f1b565b825550505050565b600090565b612fd5612fc8565b612fe0818484612fa3565b505050565b5b8181101561300457612ff9600082612fcd565b600181019050612fe6565b5050565b601f8211156130495761301a81612ee9565b61302384612efe565b81016020851015613032578190505b61304661303e85612efe565b830182612fe5565b50505b505050565b600082821c905092915050565b600061306c6000198460080261304e565b1980831691505092915050565b6000613085838361305b565b9150826002028217905092915050565b61309e8261296e565b67ffffffffffffffff8111156130b7576130b6612bae565b5b6130c18254612eb8565b6130cc828285613008565b600060209050601f8311600181146130ff57600084156130ed578287015190505b6130f78582613079565b86555061315f565b601f19841661310d86612ee9565b60005b8281101561313557848901518255600182019150602085019450602081019050613110565b86831015613152578489015161314e601f89168261305b565b8355505b6001600288020188555050505b505050505050565b7f4e487b7100000000000000000000000000000000000000000000000000000000600052601160045260246000fd5b60006131a18261290b565b91506131ac8361290b565b92508282019050808211156131c4576131c3613167565b5b92915050565b600081905092915050565b7f6861697200000000000000000000000000000000000000000000000000000000600082015250565b600061320b6004836131ca565b9150613216826131d5565b600482019050919050565b600061322c826131fe565b9150819050919050565b6000815461324381612eb8565b61324d8186612979565b94506001821660008114613268576001811461327e576132b1565b60ff1983168652811515602002860193506132b1565b61328785612ee9565b60005b838110156132a95781548189015260018201915060208101905061328a565b808801955050505b50505092915050565b600060408201905081810360008301526132d48185613236565b90506132e36020830184612e30565b9392505050565b7f636c6f7468000000000000000000000000000000000000000000000000000000600082015250565b60006133206005836131ca565b915061332b826132ea565b600582019050919050565b600061334182613313565b9150819050919050565b7f6d6f757468000000000000000000000000000000000000000000000000000000600082015250565b60006133816005836131ca565b915061338c8261334b565b600582019050919050565b60006133a282613374565b9150819050919050565b7f6579650000000000000000000000000000000000000000000000000000000000600082015250565b60006133e26003836131ca565b91506133ed826133ac565b600382019050919050565b6000613403826133d5565b9150819050919050565b60006134188261296e565b61342281856131ca565b935061343281856020860161298a565b80840191505092915050565b600061344a828461340d565b915081905092915050565b60006134608261290b565b91507fffffffffffffffffffffffffffffffffffffffffffffffffffffffffffffffff820361349257613491613167565b5b60018201905091905056fea26469706673582212207a63bcfceec24c666b0882df2b48f9da6f8cd49453277b2e92ee41657217470e64736f6c63430008120033",
  "devdoc": {
    "author": "Ng Ju Peng",
    "kind": "dev",
    "methods": {},
    "title": "CryptoCharacter",
    "version": 1
  },
  "userdoc": {
    "kind": "user",
    "methods": {
      "selectNewClothStyle(uint256)": {
        "notice": "gain the ownership of character's cloth and use the index in s_clothStyleURIs as cloth outfit"
      },
      "selectNewEyeStyle(uint256)": {
        "notice": "gain the ownership of character's eye and use the index in s_eyeStyleURIs as eye outfit"
      },
      "selectNewHairStyle(uint256)": {
        "notice": "gain the ownership of character's hair and use the index in s_hairStyleURIs as hair outfit"
      },
      "selectNewMouthStyle(uint256)": {
        "notice": "gain the ownership of character's mouth and use the index in s_mouthStyleURIs as mouth outfit"
      }
    },
    "notice": "Track ownership of each part of the character",
    "version": 1
  },
  "storageLayout": {
    "storage": [
      {
        "astId": 30,
        "contract": "contracts/CryptoCharacter.sol:CryptoCharacter",
        "label": "s_character",
        "offset": 0,
        "slot": "0",
        "type": "t_struct(Character)22_storage"
      },
      {
        "astId": 33,
        "contract": "contracts/CryptoCharacter.sol:CryptoCharacter",
        "label": "s_hairStyleURIs",
        "offset": 0,
        "slot": "12",
        "type": "t_array(t_string_storage)dyn_storage"
      },
      {
        "astId": 36,
        "contract": "contracts/CryptoCharacter.sol:CryptoCharacter",
        "label": "s_eyeStyleURIs",
        "offset": 0,
        "slot": "13",
        "type": "t_array(t_string_storage)dyn_storage"
      },
      {
        "astId": 39,
        "contract": "contracts/CryptoCharacter.sol:CryptoCharacter",
        "label": "s_mouthStyleURIs",
        "offset": 0,
        "slot": "14",
        "type": "t_array(t_string_storage)dyn_storage"
      },
      {
        "astId": 42,
        "contract": "contracts/CryptoCharacter.sol:CryptoCharacter",
        "label": "s_clothStyleURIs",
        "offset": 0,
        "slot": "15",
        "type": "t_array(t_string_storage)dyn_storage"
      }
    ],
    "types": {
      "t_address": {
        "encoding": "inplace",
        "label": "address",
        "numberOfBytes": "20"
      },
      "t_array(t_string_storage)dyn_storage": {
        "base": "t_string_storage",
        "encoding": "dynamic_array",
        "label": "string[]",
        "numberOfBytes": "32"
      },
      "t_string_storage": {
        "encoding": "bytes",
        "label": "string",
        "numberOfBytes": "32"
      },
      "t_struct(Character)22_storage": {
        "encoding": "inplace",
        "label": "struct CryptoCharacter.Character",
        "members": [
          {
            "astId": 12,
            "contract": "contracts/CryptoCharacter.sol:CryptoCharacter",
            "label": "hair",
            "offset": 0,
            "slot": "0",
            "type": "t_struct(CharacterPartOwnership)9_storage"
          },
          {
            "astId": 15,
            "contract": "contracts/CryptoCharacter.sol:CryptoCharacter",
            "label": "eye",
            "offset": 0,
            "slot": "3",
            "type": "t_struct(CharacterPartOwnership)9_storage"
          },
          {
            "astId": 18,
            "contract": "contracts/CryptoCharacter.sol:CryptoCharacter",
            "label": "mouth",
            "offset": 0,
            "slot": "6",
            "type": "t_struct(CharacterPartOwnership)9_storage"
          },
          {
            "astId": 21,
            "contract": "contracts/CryptoCharacter.sol:CryptoCharacter",
            "label": "cloth",
            "offset": 0,
            "slot": "9",
            "type": "t_struct(CharacterPartOwnership)9_storage"
          }
        ],
        "numberOfBytes": "384"
      },
      "t_struct(CharacterPartOwnership)9_storage": {
        "encoding": "inplace",
        "label": "struct CryptoCharacter.CharacterPartOwnership",
        "members": [
          {
            "astId": 4,
            "contract": "contracts/CryptoCharacter.sol:CryptoCharacter",
            "label": "styleURI",
            "offset": 0,
            "slot": "0",
            "type": "t_string_storage"
          },
          {
            "astId": 6,
            "contract": "contracts/CryptoCharacter.sol:CryptoCharacter",
            "label": "owner",
            "offset": 0,
            "slot": "1",
            "type": "t_address"
          },
          {
            "astId": 8,
            "contract": "contracts/CryptoCharacter.sol:CryptoCharacter",
            "label": "highestBid",
            "offset": 0,
            "slot": "2",
            "type": "t_uint256"
          }
        ],
        "numberOfBytes": "96"
      },
      "t_uint256": {
        "encoding": "inplace",
        "label": "uint256",
        "numberOfBytes": "32"
      }
    }
  }
}